:400000000010002011000000F5010000F501000010B500F0ADF900F0F5F80000F7B572B680220021D200394801F0E9F980220021D200374801F0E3F90022FF251100354EE3
:400040000C36344BD0584B000700284009184800013001333018AF43F31801900198834207D0581E0078C0190400187802332070F4E704320C2AE4D1C022274B92051A6083
:40008000264A274B80251A6099230621254A1B041360254A2D061560244A254C1360254A182013780B4313708022234B1A60C022224B12041A600322214B1A60214A224BA3
:4000C0001A6080222368D2021343236000F024FD22681E4B1E49134023601E4A1E4B1A6010221E4B1A601E4B20321A601D4B1E4A1D600023236011601C491D4A11601D49CF
:400100001D4A11601D4A1360F7BDC04600300F4000400F401C14000004000140EEEE00000C00014010500F4018500F4030500F4000010B4000700F400001044008010440D5
:4001400000030440A40D000008030440FFFFFBFF0E0000800600008004010B400C0202402002024008010B400000024076010080400002403F0100C0800002400C020B40FE
:4001800010B5064C2378002B07D1054B002B02D0044800E000BF0123237010BD500100200000000018140000084B10B5002B03D00749084800E000BF07480368002B00D126
:4001C00010BD064B002BFBD09847F9E7000000005401002018140000C80000200000000010B500F03DFB1821012000F019FB00F0BBFAFEE710B501F0CDF803680C2B00D1E0
:40020000FEE7FEE7F8B500250F49104B01394A1C14D000221F685C689E68A018B24203D0B858A0500432F8E70200DE68141AA64201D020C2FAE710330139E8E701F0B0F80D
:40024000FFF7CEFFFEE7C0460100000094140000002370B50C480D4C0D4D9A002100032B00D8A95801338150302BF6D1FFF7D6FE084B1A68002A00D11A6080220121D20540
:4002800013680B43136070BD00000020F501000000000000C0000020004770B506000D001400002802D0002000F008FC00207519002C05D0013C2B191B78C018C0B2F7E753
:4002C00070BD0000013810B50B2830D8C901494201F04CF806080A0C0E10141216191B20174B13E0174B16E0174B0AE0174B12E0174B0BE0174B09E0174B02E0174B00E0D1
:40030000174BC91817E0174B05E0174BC9180878C0B214E0154BC9180A7848788C780002230418430300C8781343000606E0002000F0C4FB00210B7848780002184310BD26
:40034000C07F0000C17F0000C57F0000C97F0000D07F0000D17F0000D67F0000D27F0000D47F0000D87F0000DC7F0000E07F00000C4B10B51A68102313400B4A00D113600C
:400380001368802B0DD10024022021001460FFF799FFA04205D021000220FFF793FFFFF77BFF10BD00030B40C0000020F8B5010006000320FFF786FF040031000420FFF742
:4003C00081FF0134E4012718002431000320FFF779FF25000130C001B84209D203785A1ED2B2FD2A00D80125E418E4B20130F3E731000120FFF766FF6442E4B20623844241
:4004000003D16A4255416D422B401800F8BD0000F0B5BD4CA54400F04BFC62B6002401949621FF2302AA490008A800F05DFC0028F6D102AB1988062900D885E01A7E0423F1
:40044000012A4ED102AA568BF21D8A427ED8962149008A427AD808AA92199279172A40D1F3189BB2002B08D09EAAA849D21852181278013B801880B2F3E708AB9B195A7910
:4004800040421B79120280B21A430823824228D15EE0342B00D0C6E0019B012B54D1032E52D18022002153A800F0A9FF80241F2153AB1819F21E02AB3619C918B6B200F099
:4004C00095FF832E00D0FCE002AA02AB907F5B7F000218430400FF2800D8F8E0012301930933002702A8012143763B0AC376002302AA02320176391D1780877689B20029AB
:4005000009D09EA8814D40184019007801391B189BB289B2F3E79EA97D48C9195B4208189BB203707B481B0A081803707A4B0737CB18172108A81970B9B2962300F008FC81
:400540006EE7019B012B46D00423CAE70323C8E702AB1D7F5B7E180031380A282ED96F4A1768002F26D0019A012A25D105AD02AA1371D680002109AE0C222800049600F0B6
:400580003EFFAE60290003A8B8472623AF88FF339F4202D9AB68B34207D0AA68002A01D1002F04D12B68DBB29CE70E2399E70E23170097E7052395E7052392E700F0E0FE91
:4005C000C1FF1700CFFF69FF3900CFFF3E00510069FF62007400002EB6D13000FFF7E6FE4342434102AA1377019F33007AE7019B012BA9D1012EA7D1002DA5D1484B1B6846
:400600001B68DA0BD2B2DB09DBB2002A01D080235B0002AA13771B0A5377FF23937700230427D3775EE7019B012B8DD1022E8BD93DE7019B012B87D10024F1E6019B012B75
:4006400082D12C333719FF339F4200DD7EE753AB1819320009A900F0C9FE0023BCB21F0040E7002E00D06FE705AB19002D4A082711CA11C109AA03CB03C2012334000193E0
:4006800033002FE7019B012B00D05DE7032E00D05AE702AA02AB977F5B7F3F021F430A23FF2F00D91DE741E00020FFF77FFE002802D180221C4B1A6000F012FB00F000FA96
:4006C00042E7012300240193023327000AE7144B1B681A68D3099BB2520601D001339BB22802201880B2984204D20123002401930933EAE753A900F0C1F80028F5D101238D
:40070000040001930300E0E784FDFFFFA7FDFFFFACFDFFFFADFDFFFFAEFDFFFF6C010020CC00002038140000C00000202902C919C90180220020FFF7B0FD0600002D0DD14C
:40074000FF2F0BD129000520FFF7BCFD2900361A0620FFF7B7FDF6B2361AF6B202AB76421E7701270023BDE670B50020FFF71EFE431E98410624134D40422B6804401A68AB
:40078000C021C03A0020FFF788FD6B681B78181AC0B2834203D12B681B68002B02D1002000F08CF9084B19681A00402901D0002C03D000231360FFF72BFE80221A6000F08F
:4007C0007FF970BDCC000020C0000020802200210C4BD2041A601A681A600B4A11601A681A600C22094B1A60094B0B3A1A60094B30321A60084BCD321A60084B7F3A1A60CF
:400800007047C0460001054008010540240105403801054028010540140105400C01054070B50D000400AC4000F014FA024B1C6000F014FA70BDC0460800054010B5012414
:4008400000F008FA054A13682343136000F006FA18212000FFF7E4FF10BDC0460000054010B5054C2378002B03D1FFF7AFFF01232370FFF7E3FF10BD70010020F0B500249F
:40088000ADB0089403900994FF2800D9ABE0A14200D1A8E080220CA800F0A8FD02222300210001940AAD90004059002802D00918034301920132222AF5D1002902D1002B20
:4008C00000D093E0002702977F234D494D4C4E4E4E4A0A916B6025603260C046236806911B0F07920F2B04D022680023120F0A2A01D02368DBB20893089B0493002B00D0BF
:400900007BE000F0A7F9424A424B116805901960049B04920993089B002B16D13E4A03990A920A9A09040A433C490A922560354A3160C0462168090F0F2903D01168090FEF
:400940000A2901D01368DBB20893089D002D39D1002F37D0802229000CA800F050FD019B029A0AAF9B00DA51069B079A0A937F237B602760234B3260C0462268120F0F2A7E
:4009800003D01A68120F0A2A01D01D68EDB20895089B002B16D1224A03990A920A9A09040A4320490A922760164A3160C0462168090F0F2903D01168090F0A2901D0136865
:4009C000DBB20893099B002B09D1124A049912680A600993099B002B01D0099B0893059800F03CF909E00423089306E0019B01279B00EA58E950029266E708982DB0F0BD96
:400A0000B6D7000008000040040000400400008008010B4074010020B6D8000005000080B6D90000060000801F2800D901BE034B8000C318186819607047C046400000206A
:400A4000F8B504000E00032900D901BE1F2C00D901BE032725003D40BD400635AF40AE4000F0F8F8A408054BA400E4182368BB431E43266000F0F2F8F8BDC04600E400E0EA
:400A80001F2318401E3B8340014A13607047C04600E100E01F2318401E3B8340014A13607047C04680E100E01F2318401E3B8340014A13607047C04680E200E001BE7047E9
:400AC000034A044913689BB20B4313607047C0460CED00E00400FA0570B5802504002D02064BAC4205D9586800F0AAF8044BE418F6E79868604300F0A3F870BDD400002057
:400B00000080FFFF10B5034B1B7B584300F098F810BDC046D4000020F0B5050087B000F099F8EB1E049003932D2B5CD8314B1B789D4204D8304B1C78304BE4B21EE0304B28
:400B40001B789D4204D82F4B1C782F4BE4B215E02E4B1B789D4204D82D4B1C782D4BE4B20CE02D4B1B789D4204D82C4B1C782C4BE4B203E02B4B1C782B4BE4B21B78EA1ED5
:400B8000DBB20193294B2A4F9A5C059302922F2A04D92A2D02D919263E6008E03F233E681E40029BB34205D2214B029A1A60052000F046F81C4B1F4AED182B780520DBB20A
:400BC00013601D4B019A1C601C4B1A60FFF79AFF029BB34208D9059B039A05209B5C3B6000F02EF800E001BE049800F037F807B0F0BDC046C0F1FF0FC1F1FF0FC2F1FF0F12
:400C0000C3F1FF0FC4F1FF0FC5F1FF0FC6F1FF0FC7F1FF0FC8F1FF0FC9F1FF0FCAF1FF0FCBF1FF0FCCF1FF0FCDF1FF0F401400002CFF0B4028FF0B401CFF0B4020FF0B401B
:400C40000230800804D0C0460138FDD1C046C046C0467047EFF3108072B6704780F310887047C0460D4B1B685B0615D50C4B1B68DB0609D50B4B1A68002A0DD00A490A609C
:400C800000220A490A6006E0084B074A18681168884201D012681A607047C0464C0F07406400074078010020140200200402002010B5094C4021201D00F07EF820000021E5
:400CC000443000F05BF8054800F0C2F80023236000F09AF810BDC04678010020650C000010B500F09FF810BDF7B506000D0001920120002E24D0002922D00A2410275C4374
:400D0000002C1CD00F4803783B4213D00E4A019913689BB20B800021017011602A1C9D4200D91A1C094992B20431300000F05EFB002005E00120FFF7CFFE013CE0E710208C
:400D4000FEBDC0460C020020100200207801002070B501230C0000280CD000290AD0064D11802B0044330A000100180000F03EFB00232C60180070BD7801002070B50400D5
:400D80000D0000280ED00B20FFF784FE064B074A1C60074B0B201D6000231360054A1360FFF76EFE70BDC0462002002004020020140200200802002070B504000D00002852
:400DC0000CD00B20FFF766FE0022054B0B201C60044B1D60044B1A60FFF752FE70BDC0461C02002018020020100200208021054A10B5136809060B4313600B20FFF740FE62
:400E000010BDC0460000074010B5054C2378002B03D100F041F801232370FFF7E7FF10BDFC01002010B50B20FFF734FE00F0A0F8054A0B2013685B005B0813600022034B0C
:400E40001A60FFF731FE10BD00000740880F0740014B58607047C046FC01002080200A4B40001A6802420AD0084A1268520406D41A680749114019601A6802431A60022231
:400E8000044B1A607047C0460000074060000740FFFEFFFF6C0007400C2110B500241D4A0B2013680B4313601B4B1C4A1C601C4B1C491A601C4B1D4A13601D4A14601D4A1B
:400EC00011601D4A13601D4B1C60FFF7E3FD03210B20FFF7B5FD1A490B20FFF7A5FD4C22184BFF321C60184B1C60184B1A60184B3C3A1C60174BFF3A1C60174B1C60174BEA
:400F00001A70174B1C70174B1C60174B1C60174B1C7010BD700007400000074077080040600007401000FE0007010080000307400403074010030740000207400402074040
:400F400025100000C80E0740880E0740480F0740080F0740C80F0740880F0740250200200C0200200402002010020020240200200023044A1360044A13601022034B1A7088
:400F80007047C046680007406C00074025020020144A10B5136814495B005B08136000230B60124912480B60046812492140016011490B6011490B601149124B1960124953
:400FC000124B19601249134B19601349134B19601021134B19708021136809060B43136010BDC04600000740680007406C00074060000740FF5CFFFF880F0740C80F07403A
:40100000F3070000800F0740ED0F0000C00F0740FF0F0000400F074017030000000F074025020020AF4BF7B51B68002B00D09847AD4B1B68DB0702D50022AC4B1A60202069
:40104000AB4B1A78024219D1AA4A11680222FF32114213D01978A84AC90706D511781E38814311701178073004E0117881431170902110780143117000221A701A7892062A
:4010800000D52EE11A78D20600D428E1022299480168114234D09949994D0A6099490D320C6809682240984C0904C90F26788A189149B24204D204260A7832430A7004E07A
:4010C00027782E68D21BB21A2A602D688F4A156000228F4D2A60802522708E4C6D0222682A43226025688C4A2A40226002240A78A2430A700A78013C22430A7010221A7064
:4011000008220168114235D07C490A60834A1168890417D58249834F0F25834C24682C420CD06E460C683D682C19804D2D68F571F57925700C6801340C60EDE714687C4959
:40114000214011607B4A6C4915681400AA0603D540250A782A430A700025774A1560774A226020240A78A2430A700A78103C22430A701C700268520639D50121704A116023
:40118000704A5D491068102210420BD0604802605E4A10685A4A106002200A7802430A7012221DE0684A5E4812680068121A0420072A0ED95948082A05D1A0240268240287
:4011C0002243026007E080240268A401224302600820594A106020200A7802430A7011221A705A4A454B1A600122594B1A600821584B1A680A4225D0534B494A1B681068A4
:40120000083B1B1A01208B4201D900200B00454C464D002B0AD011682668013B71182E68F6B20E70116801311160F2E7002807D080203A4900020A6802430A603E4A13605D
:4012400008221FE01B685B071ED5384B34491A683D4B08681B6898420CD201203C4BD2B2186030480B680068C3181A700B6801330B6006E0FFF7F2FD40211F4A13780B43DC
:40128000137004222B4B1A60334B1B68DB0628D50F21FF25314B1B481C68194A03680B40082B18D02E4B17681B682E4E9F4208D21368E3181B78DBB23360136801331360CE
:4012C000ECE73560104E33780A2BE7D833780133DBB23370E2E71022234B1A6001E0FFF757FEF7BD000200208C0E0740880E0740250200204C0F07400C020020400F07402A
:4013000008020020080207402402002004020020880F074004020740FFFFFEFF60000740100200201C0200200803074040030740FF5FFFFFC00F0740C80F0740ED0F000021
:40134000800E07406400074018020020FF0F00006C000740CC0F07408C0F0740200200201402002040020740800F074002B4714649084900095C49008E4402BC7047C04615
:4013800003B47146490840004900095E49008E4403BC7047014B18687047C046480100200E4B70B500251E000D4CE41AA410A54204D0AB00F35898470135F8E700F058F84A
:4013C000084B00251E00084CE41AA410A54204D0AB00F35898470135F8E770BD7C1400007C1400007C14000084140000002310B59A4203D0CC5CC4540133F9E710BD03007C
:401400008218934202D019700133FAE77047000080150000510000000000000001330F4003410F4004430F40E61062048E04D84018808C40C608E6089311C804113C01019F
:40144000030405060708090A0B0C0E0F101112131415161718191B1C1D1E1F2021222325262728292A2B2E2F3031323334354300F8B5C046F8BC08BC9E467047A9010000C9
:4014800051020000F8B5C046F8BC08BC9E46704781010000A8140000C800002088000000D800000000000000000000001014000014140000010000000000E02EC05D000015
:4014C0001800000000366E0100000000000000000000000000000000000000000000000000000000000000006E1400000000000000000000000000000000000000000000AD
:4015000000000000000000000000000000000000000000000000000000000000000000000000000000000000E80000200000000000000000000000000000000000000000A3
:40154000000000000000000000000000000000000000000000000000000000000000000000000000000000000000000000000000000000000000000000000000000000006B
:401580000010002091150000492100004921000010B5024B83F3088800F0DEFD0010002070B5194C23688022D20213432360182000F0A6FE2268154B13402360144A154BC0
:4015C0001A603022144B1A60103A144B1A60103A134B1A6080221206124B1A6000252560114A124B1A60124A124B1A60124A134B1A601349092000F041FE092000F028FE3A
:40160000104B1D6070BDC04600010B40FFFFFBFF0600008004010B400C020240140202401802024008010B40FE00008000000240FE0000C0400002400E00008080000240DD
:40164000612600000C020B4010B572B600240FE02F486200131959000B00411889881A5AC31858880004104300F042FD0134E4B2012CEDD9264801000C312C3000F01EFD31
:40168000EE22244B1A6099231B04234A1360234A1360234A1360234A136080229205224B1A6022490B783C22934314221343DBB20B701F4A117816230B43DBB21370302324
:4016C0001C4A13601C491D4A11601D4A13601D4A1D4B1A600B221D4B1A601D4A1D4B1A600F221D4B1A600C3A1C4B1A601C4A1D4B1A600A221C4B1A60043A1C4B1A60083271
:401700001B4B1A60FFF74CFF00F018FD10BDC046344900000C00014000500F4010500F4020500F4030500F4038500F4001700F4000700F4000000440B60DD8000800044089
:4017400018000440B66DDB0008010440000204400060DB00080204401802044000030440A46DDB000803044000040440080404401804044010B5064C2378002B07D1054B16
:40178000002B02D0044800E000BF0123237010BD8801002000000000CC480000084B10B5002B03D00749084800E000BF07480368002B00D110BD064B002BFBD09847F9E722
:4017C000000000008C010020CC480000C8000020000000000122014B1A707047A401002010B5182866D88000334B1B589F46080000F0B8FF5EE0080000F0FAFC5AE0080015
:4018000000F002FD56E0080000F00AFD52E0080000F012FD4EE0080000F0B0FF4AE0080000F0B8FF46E0080000F0C0FF42E0080000F0C8FF3EE0080000F0D0FF3AE00800D8
:4018400000F0D8FF36E0080000F0E0FF32E0080000F0E8FF2EE0080000F0F0FF2AE0080000F0F8FF26E0080001F000F822E0080001F008F81EE0080001F010F81AE00800E2
:4018800001F018F816E0080001F020F812E0080001F028F80EE0080001F030F80AE0080001F038F806E0080001F0ACF902E0080001F0B4F910BDC046D048000070B50024B3
:4018C00022E0234B1B5D234A1355002B0ED1224E305D0021FFF784FF3379012B12D11E4B1D19287A0121FFF77BFF0BE0012B09D1194E305D0121FFF773FF3519287A00217C
:40190000FFF76EFF0134E4B2032CDAD9104B1B79104A1371002B03D00022104B1A7002E001220E4B1A700D4D29784B425941C9B2094C207BFFF754FF2978607BFFF750FF46
:40194000034B5B79034A5371054A537070BDC046CC020020D8020020CC000020F8020020A4010020F8B504220021C84802F0A5FF04220021C64802F0A0FF06220021C54866
:4019800002F09BFF04220021C34802F096FF06220021C24802F091FF0023C14A1370C14A137002220021C04802F087FFBF4D06220021280002F081FFBD4C207900F03EFF2B
:4019C000207900F047FF207900F050FF207900F059FF207900F062FF207900F06BFF207900F074FF207901F00DF90621280001F0C5F80621AF4801F0DFF8FFF7EBFE62B61C
:401A00000221012000F07AFDFA210902012000F0D5FD0121012000F097FD8020400000F0ADFD01F01BF901F0E5FA00F095FF01F08BFC002803D101F02BF901F0C3FC9C4B38
:401A4000987B01F079FAC0B29B4B9870DB78984265D000282FD0984B5B68002B2BD10122954B5A6000240AE0032C04DC904B185D0021FFF7B5FE0022864B1A550134042C7E
:401A8000F2DD8B4C207B0021FFF7AAFE2379012B42D107E0864B1B19187A0121FFF7A0FE013400E00024032CF4DD814B587B0121FFF796FE30E000282ED07F4B5B68012BA4
:401AC0002AD100227C4B5A6000240AE0032C04DC774B185D0121FFF783FE01226D4B1A550134042CF2DD724C207B0121FFF778FE2379012B10D107E06D4B1B19187A0021C7
:401B0000FFF76EFE013400E00024032CF4DD684B587B0021FFF764FE674B9A78DA705D4B1B78012B13D05B4A5278012A0FD0594A9278012A0BD0574AD278012A07D0554AFB
:401B40001279012A03D001215B4A516002E00021594A5160012B1FD14E4B5B78012B1BD14C4B9B78012B17D14A4BDB78012B13D1484B1B79012B0FD14D4B1B79012B04D157
:401B80004B4B187C0021FFF72BFE494B587C0121FFF726FE002445E0454B1B79012B04D1434B187C0121FFF71BFE414B587C0021FFF716FEEEE725003D4B1B19187D01F08F
:401BC000BBF9C0B2314B1855314B1B5D984227D0002821D02F4B1B5D002B03D000222E4B1A5502E001222C4B1A552B4F795D304E705DFFF7F5FD7B5D19004A1E9141254AF6
:401C000051553279012A07D159425941C9B2284B5B19187AFFF7E4FD1C4B5A5D1C4B5A550134E4B2032CC6D9214B187E01F084F9C0B21B4B18701B4B1B78984200D192E09D
:401C4000002800D18BE0134B1B79002B03D000221A4B1A7002E00122184B1A70174D2978134C207BFFF7BCFD2B7819004A1E9141084A11712279012A06D159425941C9B248
:401C80000B4B587BFFF7ACFD002421E0EC020020E8020020D8020020E0020020FC020020E4020020D4020020C8020020F0020020CC000020CC020020A4010020F802002054
:401CC000C94B1B19187F0021FFF78AFD0134E4B2032CF5D9C54B1B79012B31D1C44B5B78012B05D1C04B587F0121FFF779FD36E0022B05D1BC4B987F0121FFF771FD2EE0AE
:401D0000032B09D1B84C207F0121FFF769FDA07F0121FFF765FD22E0042B09D1B24C607F0121FFF75DFDA07F0121FFF759FD16E0052B14D1AC4BD87F0121FFF751FD0EE04D
:401D4000002B09D00BE0A84B1B19187F0021FFF747FD0134E4B200E00024032CF3D9A54B1A78A54B1A7020239F4AD05C01F0E4F8A24B1B78984238D020239B4AD05C01F0C9
:401D8000DBF800281BD09A4B5B78052B03D00133974A537002E00022954B5A70974A137859424B411370904C2423E05C0021FFF717FD2823E05C0121FFF712FD0EE08A4CEA
:401DC0002823E05C0021FFF70BFD2379012B05D12333854AD05C0121FFF702FD2023824AD05C01F0A9F8854B18707F4B2033587801F0A2F8814B5B7898423AD07A4B2033FF
:401E0000587801F099F800281CD0794B5B78002B03D0013B764A537002E00522744B5A70764A537859424B4153706F4C2300243358780021FFF7D4FC283460780121FFF7A9
:401E4000CFFC0FE0684C2300283358780021FFF7C7FC2379012B05D1634B243358780121FFF7BEFC604B2033587801F065F8634B58705F4B5B78002B0FD100225B4B5A71DA
:401E8000002407E0584B1B192C22985C0021FFF7A7FC0134042CF5DD7CE0012B15D10122524B5A712C23504AD05C0121FFF798FC012407E04C4B1B192C22985C0021FFF723
:401EC0008FFC0134042CF5DD64E0022B1BD10222464B5A71002407E0434B1B192C22985C0121FFF77DFC0134012CF5DD022407E03D4B1B192C22985C0021FFF771FC0134AB
:401F0000042CF5DD46E0032B1BD10322374B5A71002407E0344B1B192C22985C0121FFF75FFC0134022CF5DD032407E02E4B1B192C22985C0021FFF753FC0134042CF5DDAB
:401F400028E0042B15D10422284B5A71002407E0254B1B192C22985C0121FFF741FC0134032CF5DD204B2C3318790021FFF738FC10E0052B0ED105221C4B5A71002407E05B
:401F8000194B1B192C22985C0121FFF729FC0134042CF5DD154B5A79194B5B799A4209D14FE0114B1B19187F0021FFF719FC0134E4B200E00024032CF3D90C4B1B79012B4F
:401FC0003FD10B4B5B78012B05D1074B587F0121FFF706FC35E0022B14D1034B987F0121FFF7FEFB2DE0C046CC000020D8020020A4010020E4020020D4020020C802002022
:40200000FC020020032B09D1274C207F0121FFF7E7FBA07F0121FFF7E3FB12E0042B09D1214C607F0121FFF7DBFBA07F0121FFF7D7FB06E0052B04D11B4BD87F0121FFF75B
:40204000CFFB1A4B1B78002B14D00022174B1A7000F066FDC30605D5FFF730FC00F0CCFD00F078FD00F05CFDC30703D500F0BEFD00F05CFD002411E00D4B1A5D0D4B1B5DB8
:402080009A4209D000F04CFD830705D4084B1B5D084A1355084A13550134E4B2052CEBD9012000F02FFBC2E4CC000020A4010020D8020020FC020020F0020020F0B500254A
:4020C000002711E0BB00C658F3B2FF22964308E06A008A181478A419527822700135013BDBB2002BF4D10137042FEBD9F0BDC04610B50A00002102F0E0FB10BD0C4B1B6882
:40210000002803D080221206134301E05B005B08074A1360074B1B68002803D080229204134301E0044A1340024A13607047C04680031A4008010B40FFFFFFFD10B50120C4
:40214000FFF7DCFF10BDC04610B502F081FB03680C2B00D1FEE7FEE770B50F4E0F4D13E029686B68AC68002202E001C901C30432A242FAD1E868002202E0002102C304321B
:402180008242FAD11035013E002EE9D102F066FBFFF7E8FBFEE7C04601000000444C000010B500230AE0032B03D89A000C49505800E00C4899000C4A885001332F2BF2D9B6
:4021C000FFF742FA094B1B68002B02D10022074B1A608022D205116801230B43136010BD801500004921000000000020C000002004490A68D2B240239A4380011840104398
:40220000086070470003044004490A68D2B210239A43000118401043086070470003044004490A687F231A40C301D8B2104308607047C0460003044004490A68D2B208239D
:402240009A43C0001840104308607047000004401F2318401E3B8340014A13607047C04600E100E01F2318401E3B8340014A13607047C04680E100E001BE704770B50400B0
:402280000D001F2802D90020FFF7F6FF1034A40080239B059C4664442068256070BDC04670B504000E00032902D90020FFF7E4FF1F2C02D90020FFF7DFFF03252540ED0024
:4022C000063501F07BFDA408A400074B9C46644421680323AB4099430B003100A9401943216001F06FFD70BD00E400E010B5034B1B7B584301F058FD10BDC04600010020CA
:40230000F0B557464E46C0B483B0040001F056FD0190E71E2D2F74D83F4B1B78DBB29C4208D83E4B1B78DBB29A463D4B1B78DBB2994631E03B4B1B78DBB29C4208D83A4B28
:402340001B78DBB29A46394B1B78DBB2994623E0374B1B78DBB29C4208D8364B1B78DBB29A46354B1B78DBB2994615E0334B1B78DBB29C4208D8324B1B78DBB29A46314B2D
:402380001B78DBB2994607E02F4B1B78DBB29A462E4B1B78DBB299462D4BDE5D2F2E09D92A2C07D919222B4B1A60052001F0FCFC192503E0274B1D683F231D40B54206D937
:4023C000234BDA5D234B1A60052001F0EDFC1F4B9C4664442378DBB21F4A13601F4B52461A601F4B4A461A600520FFF77FFFB5420AD2174BDA5D174B1A60052001F0D4FCA2
:4024000002E00020FFF738FF019801F0DBFC03B00CBC91469A46F0BDC0F1FF0FC1F1FF0FC2F1FF0FC3F1FF0FC4F1FF0FC5F1FF0FC6F1FF0FC7F1FF0FC8F1FF0FC9F1FF0F8A
:40244000CAF1FF0FCBF1FF0FCCF1FF0FCDF1FF0F744900002CFF0B4028FF0B401CFF0B4020FF0B40034B1868C0231B02184000D00120704700010B40034A1368802109062B
:402480000B4313607047C04604010B4010B501F095FC044A1368C02109020B43136001F091FC10BD00010B4010B501F087FC08490A68084B1A408024E40122430A600A6887
:4024C00013408022120213430B6001F07BFC10BD00010B40FF3FFFFF10B50400022802D90020FFF7C9FE044B1868E4000134E0400123184010BDC04610020B4070B50400CD
:402500000D00022802D90020FFF7B6FE2000FFF7E3FF00280AD1064A1368E40003210800A04083430D40A5401D43156070BDC0460C020B400300034A1068DB00D8400323CF
:40254000184070470C020B4070B504000D00012802D90020FFF790FE2000FFF7BDFF002809D105490B68E40002340122A2409343A5401D430D6070BD0C020B4010B504008A
:40258000FFF77AFF0C4A136823431360E30704D50020FFF7A1FF0028FAD0E30504D50120FFF79AFF0028FAD0E30304D50220FFF793FF0028FAD010BD10020B4070B5050085
:4025C0000C00012802D90020FFF756FEC920FFF78DFE06490B682D01054AAA409343AC401C430C604320FFF781FE70BD08020B40FFFF000070B5050001F0E0FB0400FFF7F9
:4026000031FF002803D0FFF74FFF012100E0002108482840084A1568084B2B40184310601368012901D1FFF731FF200001F0CAFB70BDC0460404040010020B40FBFBFBFFF9
:40264000054A1168054B184008431060024B1A68024B1A42FAD1704710020B400808080010B5244B1B685B0715D5234B1B685B070ED5224BD969042001401F4C22688A43B1
:402680002260DA698243DA611B69002B00D098470420FFF7AFFF174B1B685B0518D5164B1B685B0510D5154BD9698022D2001140114802688A430260D969114A0A40DA6159
:4026C0005B69002B00D098478020C000FFF792FF084B1B685B030CD5074B1B685B0304D5064B9B69002B00D098478020C002FFF781FF10BD10020B4014010020B0010020FD
:40270000FFFBFFFF10B5041E13D1FFF713FF032803D10130FFF76EFF23E02000FFF70AFF02281ED10630FFF78BFF0420FFF762FF17E0012815D1FFF7FDFE032804D1802038
:40274000C000FFF757FF0CE02000FFF7F3FE022807D180200001FFF773FF8020C000FFF749FF10BD04490A687F231A40C301D8B2104308607047C0460002044004490A685E
:40278000D2B204239A43800018401043086070470000044004490A68D2B202239A434000184010430860704700000440044A1368DBB201218B430840184310607047C0465A
:4027C0000000044004490A687F231A40C301D8B2104308607047C0460000044004490A68D2B240239A43800118401043086070470000044004490A68D2B240239A438001BA
:4028000018401043086070470002044004490A68D2B220239A43400118401043086070470002044004490A68D2B210239A43000118401043086070470002044004490A68B1
:40284000D2B204239A43800018401043086070470003044004490A68D2B220239A43400118401043086070470003044004490A68D2B208239A43C0001840104308607047B5
:4028800000030440044A1368DBB201218B430840184310607047C0460004044004490A68D2B220239A434001184010430860704700010440044A1368DBB201218B43084032
:4028C000184310607047C0460001044004490A68D2B208239A43C00018401043086070470001044004490A68D2B204239A43800018401043086070470001044004490A685C
:40290000D2B210239A43000118401043086070470001044004490A68D2B202239A43400018401043086070470001044010B50B20FFF78EFC10BDC04610B500F03BF810BD67
:4029400010B5044A1368802109060B431360FFF7EDFF10BD0000074010B5064B1B78002B04D1FFF7E9FF0122024B1A70FFF7E8FF10BDC046D00100200A4B1B68DB050DD5A6
:40298000094B1B685B0409D4064B1968074A0A401A601A68802149000A431A600222044B1A6070470000074060000740FFFEFFFF6C00074010B51E4A11680C230B43136014
:4029C00000241C4B1C601C4A1C4B1A601C4B1D4A13601D4A14601D491D4A11601D4A13601D4B1C600B20FFF73DFC03210B20FFF757FC1A490B20FFF741FC194B1C60194B7A
:402A00001C604C22FF32184B1A60184B1C60184B1C60184B1C603C3AFF3A174B1A70174B1C70174B1C60174B1C60174B1C7010BD700007400000074077080040600007409D
:402A40000701008000030740040307401000FE00100307400002074004020740CD3D0000C80E0740880E0740480F0740080F0740C80F0740880F0740020300200C030020E8
:402A800004030020100300202403002010B5144A13685B005B081360002312490B6012490B601248046812492140016011490B6011490B601149124B19601249124B196029
:402AC0001249134B19601349134B19601021134B19701368802109060B43136010BDC04600000740680007406C00074060000740FF5CFFFF880F0740C80F0740F3070000FB
:402B0000800F0740ED0F0000C00F0740FF0F0000400F074017030000000F074002030020014B1878C0B270470C03002010B50B20FFF798FB064A14780F231C4013780D21A4
:402B40008B4313700B20FFF783FB200010BDC0460C03002010B50B20FFF784FB064B1C780F229443197820320A401A700B20FFF76FFB200010BDC0460C03002070B5040064
:402B80000D0000280ED00B20FFF76CFB064B1C60064B1D600023064A1360064A13600B20FFF756FB70BDC0462003002014030020040300200803002070B504000D00002867
:402BC0000CD00B20FFF74EFB054B1C60054B1D600022054B1A600B20FFF73AFB70BDC0461C03002018030020100300200022014B1A607047040300200022014B1A6070476F
:402C00001003002004490A68D2B240239A43800118401043086070470001044004490A687F231A40C301D8B2104308607047C0460001044010B5084B1B78002B06D100F0EB
:402C400041F900F08BF90122034B1A7000F042F800F064FD10BDC046D801002010B5FFF7E9FF041E02D100F0B3FC0400002C02D100F0A8FB0400002C03D100F065FB00281B
:402C8000FBD100F04FFA00F0B5F9200010BDC04670B50E4E0024002513E06B0904339B000B4A9B581F222A40D340DB0707D5300000F062F804003100280000F0D7F82036CB
:402CC0000135072DE9D9200070BDC046AC4900002803002070B5002309E012491A1D92008818002444600120404250500133002BF3D00D4C082310E06668A27E094B5B19C9
:402D000000211976012A06D12069002803D0F179228B01F0D2FD20342B005D1E002BEBD170BDC04628030020AC49000010B582B0040008001300628869460A80228A01F05C
:402D4000ADFB6B461B8863806B469B7823716B46DB7863716B461B79A37102B010BDC04630B50B884A889C1A0025CD800079844200DDCC8030BDC046F0B55F4656464D4620
:402D8000E0B482B08246837E062B02D10122934601E0002293465246D26891465246946856680093D76900250023019321E0009A2100484600F08EFA318A20883A0001F0AE
:402DC00011FC2A0039003000FFF7B0FF0C37009A2100300000F00CFA019021003000FFF7BFFF0A345B46002B02D10C339C46E144013553461B8B9D42D9D3019802B01CBC8E
:402E000091469A46A346F0BDF0B50A8B8D684F680B69012125E00C00044003D17E88BA79B21802E07A88BE79921BEE88B24201D3002200E00A00A24202D01E78013E1E7072
:402E4000A24202D01C78002C07D188431043002A01D1FA7900E001221A7049000A3501336246541EA446002AD5D1F0BD70B504008A7E134B1B181D7E012A04D12800FFF732
:402E8000C3FF050002E00020FFF7F6F90C4B1B191D7663091F2214401E3AA240002D07D104339B000649CB1859689143596006E004339B000249CB1859680A435A6070BDD9
:402EC0002803002070B5174C862252000021200001F0F3FC144B23808023DB006380134BA38002222223E254200024308E321049083101F0D9FC0F490C00083408230CE01E
:402F0000A268238B04E00B78537201310A320300581E002BF7D120342B005D1E002BEFD170BDC04628030020D2A9FFFFB80B0000A44A0000A449000007280BD81F230340C2
:402F400001229A404009031D9B000348C3185868104000E000207047280300200023024AD380024A1360704728030020BC020020FF231940062902D08318002119715300A2
:402F8000195AC31859808218002313727047C04670B506000D00012305E0220029003000FFF7E6FF23005C1E002BF6D170BDC04610B54001054B1B188A00511848009A68CC
:402FC00094466044997EFFF7E3FF10BDAC49000070B505004301064AD3181B8B04E021002800FFF7E5FF23005C1E002BF7D170BDAC49000010B5082303E02000FFF7E8FFCA
:4030000023005C1E002BF8D110BDC04670B5012309E0FF231340062B04D063005E5A1B199D002E5223005C1E002BF2D170BDC046F0B501230CE0FF231340062B07D06500BF
:403040006F5A2E19B300C3185F806D5A9D8023005C1E002BEFD1F0BDF0B501230EE0FF231340062B09D065006F5A2E19B300C318DF806E5A1E816D5A5D8123005C1E002B4E
:40308000EDD1F0BDF0B557464E464546E0B4804643011D4AD3185A6891461B8B2BE043465A01194B9B18AA00521954009A6894466444D86806006A0052199100DA6992465B
:4030C0008A449F7E062F00D046183A0021003000FFF79CFF3A0021003000FFF7A9FF3A0021003000FFF7B8FF4B46198A2088524601F04CFA2B005D1E002BD0D11CBC90463A
:403100009946A246F0BDC046AC49000010B5082303E02000FFF7B6FF23005C1E002BF8D110BDC04610B5FFF7F1FF10BDF0B5012319E0FF231340062B14D067007B5A9C463C
:403140003E19B300C318DD8865441E89B44665445E89AD19AD0866465E81DE881E817E5ADE80CD5323005C1E002BE2D1F0BDC046884202D9030008001900914200D9110016
:40318000884200D208007047F0B54F464646C0B483B001900F009046012317E0FF2342461340062B11D06E00F05B73199C00019B9C46644463889946A2881900FFF7D8FFC6
:4031C0004B46A380F35B6380B8532B005D1E002BE4D103B00CBC90469946F0BD9840504380235B009A1A51434018000A7047C046F0B5474680B482B007000E000192012348
:403200003EE06300985BF3185988884205D3431A321900251572012201E00B1A0022002A11D17D79AB420ED933191B7A3A7A934205D3220001993000FFF79AFE1FE0321911
:40324000013313721BE03D79AB4204D97D79AB4215D2002A13D1FF23019A1340062B0ED00902331998461B79194308230122FFF7B5FF020A6300F3185A804346187123007D
:403280005C1E002BBDD1002002B004BC9046F0BDF0B5474680B407000E009046012313E0FF2342461340062B0DD06500A85B2A199300D95B00238022FFF790FF80B22A1922
:4032C0009300D853A85323005C1E002BE8D104BC9046F0BD70B504000D001600FFF754FF320029002000FFF7D3FF320029002000FFF71CFF70BDC04630B5084803680F24E7
:40330000A3431900064D2B780F2213400B43E13293432A78A2431343036030BD00FF084062F1FF0F10B5FFF7E7FF10BD10B5044A1168044B0B40136000F094FB10BDC046AF
:4033400010000140FFF0FFFF024BDB68802018407047C0462803002010B50E4BDB68DB030DD407280DD8430904339B00094A9B581F220240D340DB0705D4012404E0112458
:4033800002E0012400E00024002C01D100F07CFB200010BD2803002010B5084BDB68DB0307D4074B1B78012B05D100F0F1FA002003E0112001E00120404210BD28030020BF
:4033C000C002002010B50F4BDB681B0618D400240120404211E02000FFF7BEFF00280BD1062C03D80122084B5A7002E00022064B5A70FFF7D1FF04E00134072CEBD900E0CB
:40340000112010BD28030020C002002010B504000C4B1B78834214D0012B01D1FFF786FF012C05D100F0D4F90122064B1A7008E0022C06D0042C04D0032C02D00022014B6F
:403440001A7010BDC002002030B500200D4B16E019680A681C69A2430A605C6822689D7E0721A9408A4311000622AA400A43226099680A685C69A2430A601C33013007288A
:40348000E6D930BD3C4B000010B51B4A93780133DBB293709078C0B2FFF75EFF041E09D1154B9B78072B02D10022134B5A70FFF773FF1EE0104B9B78072B11D10F4B1A8970
:4034C00001321A81DA6880218A43DA60DA681202120ADA60DA6804061443DC60002408E0064AD3681B021B0AD360D16803060B43D360002CC9D110BDC002002028030020FA
:40350000084B1A68520052081A601A68120C12040138104318601A68802109060A431A607047C04600000240084B1A68520052081A601A68120C12040138104318601A68A7
:40354000802109060A431A607047C0464000024070B5002512E06B010A4A9E58002406E0E3001B1B9800301800F05CFA01346B01044AD3181B7E9C42F2D30135072DEAD917
:4035800070BDC046AC4900004001024B1818436858897047AC4900000203121A01238B40013B9A4205D90202101A834203D3402002E0C02000E00020C0B2704710B50C00F2
:4035C000FFF7E2FF40002188FFF7E6FF207310BDF0B591B001ACFA239B002380C8336380A38022233C4AD15C3C4801F0A5F84008A0810025002637E06B01394AD3185C686E
:403600000C2323800023237301AFB889354901F093F860815521280000F00CFB23000A333B61314B1B783B76304B1888FA239B0058432F4901F080F8F881380000F07EFE76
:403640002C4B984203D9062601E05B00638101AB99896389284A5A439142F6D8002BF4D0AA0008ABD0500135072DC5D900241CE063011B4AD3185D685521200000F0DAFA00
:4036800006432B000A3301A80361A20008ABD3588360154B1B780376EB89C3802B001033436100F085FE28800134072CE0D900240CE063010A4AD31859682000FFF77EFF71
:4036C0005521200000F0B6FA06430134072CF0D9300011B0F0BDC04628030020C05D0000AC490000DC0500002001002022010020FF0F0000870D01003831000010B50024BF
:4037000007E06301044AD31859682000FFF756FF0134072CF5D910BDAC49000010B5FFF701FEFFF7EBFFFFF78FFE0120FFF76EFE002010BD014A024B1A6070470002000188
:4037400008000840044A1168044B0B40802189000B4313607047C04608000840FFFCFFFC014A024B1A607047000200010800084070B50E001500038801249C40013CA300DA
:403780001B195800642100F0D7FF013083199C4200D22300B04201D8301A00E00020A84203D8AB4203D2062002E0062000E0002070BDC04610B5054AC02314689C432043E0
:4037C00010600800FFF7B0FE10BDC0461801002010B5FFF7BDFEFFF7ADFF074A1168074B0B40C021C9000B431360054B1B68054A1343054A136010BD10000140FFF0FFFF72
:40380000180100202008E8810400084070B50930040000F0D3FA094D2968094B1940094B1A78A35C084C2468A218527A120413430B432B6000F0C6FA70BDC04608000840FC
:4038400000FF80FF1C4C00003404002010B5094B1B785B01084AD3185B685989187B431FDBB2012B02D8490800D10131FFF7A2FF10BDC046C2020020AC4900000288012353
:403880009340013B1B04014A536070471801002070B500F093FA04001E4B1B681E4A13431E4A136022231E4AD05CFFF729FE1D4A13685B005B0813601368802109060B433F
:4038C0001360194E3568272000F06EFA174B2B40174A13433360E123DB0100E0013B154A1268120701D4002BF8D10F4B1D60094D114B2A681343094A13600F20FEF7A8FCE5
:403900006F2000F051FA6A680C4B1A60200000F059FA70BD180100202008E8810400084028030020400002400800084000E8FFBFF0060040100008402018E8810C0008402E
:4039400010B5044AD36804490B43D360FFF7A0FF10BDC046280300208000010070B50400857E067E00F02AFA23681B680F22B24093431A000423B340134366683268072112
:40398000A9408A4332602268136000F01BFA70BD70B5154E3378154D5B01EB185868144C0023237033785B01EB1899682378DBB29A00D3185A008A180E4B1A60FFF726FF24
:4039C00033785B0158592278D2B2D3009A1A9300C018094B1860FFF7C1FF084800F0D4F9FFF7AEFF70BDC046C2020020AC490000C302002034040020380400208542000061
:403A000010B54001054BC058CB00591A8B00C018034B1860FFF7A2FF10BDC046AC4900003804002070B50400007EA57E21680B680F22824093430B6000F0C0F961680B6817
:403A40000722AA4093431A000623AB4013430B6000F0B8F9A1680B68607E0122824093430B6070BD10B5064B1B78012B06D1054B1868FFF7D7FF0022014B1A7010BDC0460D
:403A8000C40200203804002070B5104E4301F3185D68C0B20E4C20700120FFF7B7FCFFF7E1FF23785B019A590A4B1A600A4BDA687F218A43DA602178DA680A43DA602800B0
:403AC000FFF7DCFEFFF7C2FE70BDC046AC490000C2020020380400202803002070B54301134AD3185D68C9B2124C217099682378DBB29A00D3185A008A180F4B1A60FFF739
:403B0000C3FF2800FFF782FE2378DBB20B49DA00D31A98000B689C4660440860FFF71EFF0122074B1A70074800F02EF970BDC046AC490000C30200203404002038040020B0
:403B4000C402002041420000F0B5474680B482B007000E0090462F4A13785B012E49CB185B680193002333701078C0B22B4B1978C9B2FFF7B3FFFFF7E5FD002480256D0050
:403B8000BC4202D23378AB4333706D0833782B4333700198FFF73AFEFFF7D2FEE123DB0100E0013B1E4AD268120601D5002BF8D11C4B1B681C88002DE2D1164B1B785B01FB
:403BC000154A9858154B1A78D2B2D3009A1A9300C018154B1860FFF725FF0022134B1A70FFF7BEFD220039000198FFF7C1FD43461A7833789A4204D2424613700C4A13725B
:403C00005481084B1B6832785A7202B004BC9046F0BDC046C2020020AC490000C3020020280300203404002038040020C402002018010020F0B54F4680B484B00400894617
:403C40004301384AD3185F68012503AB1D703B882800984001384843642100F06DFD0190E2B2314B1A70314800F08EF83E0009362F4B1D725D8100222E4B1A7000250AE053
:403C800003AA31000198FFF75FFF0543294A13780133DBB213706301224AD318DA7E254B1B78DBB29A42EBD803AB1B7801335B087B7200221F4B1A7022E06301194AD318DE
:403CC0009E681C4B1B78DBB29A00D3185A00B618194B1E60737A787A83420AD31B1AD8B270724B4658436330642100F025FD707201E0002373720F4A13780133DBB213703D
:403D00006301084AD318DA7E0A4B1B78DBB29A42D3D80022074B1A70280004B004BC9146F0BDC046AC490000C20200204142000018010020C302002034040020014BD8670D
:403D40007047C0460000002010B5040000F036F8044A13689B009B08A4071C43146000F031F810BD0CE400E080221202014B1A607047C04600E100E080221202014B1A60CE
:403D80007047C04680E100E010B50400FFF7F4FF2000FFF7D3FF0320FFF7D6FFFFF7E4FF10BDC046000000000230800804D0C0460138FDD1C046C046C0467047EFF31080FB
:403DC00072B6704780F310887047C04610B5C84B1B68002B00D09847C64B1B68DB0702D50022C54B1A60C54B1B789B0622D4C44B1A680223FF331A421CD0C04B1B78DB0704
:403E00000AD5C04A137802218B431370117809230B43DBB213700AE0BA4A137820218B431370117870235B420B43DBB213700022B24B1A70B14B1B789B0600D554E1AF4B88
:403E40001B78DB0600D44DE1AD4B1B689B0740D50222AD4B1A60AD490B680D321A40096880231B020B4000D001239B18A84A1278D2B2934206D2A34A117804230B43DBB2BA
:403E8000137006E0A24A12789B1AA2490A68D31A0B60A04B1A68A04B1A6000239F4A13609B4A13709E4B1A68802149020A431A6019689C4A0A401A60924A137802218B435F
:403EC0001370117801230B43DBB2137010228B4B1A708B4B1B681B0739D508228A4B1A60914B1B689B040CD414E0904B1A68904909688A188F490968C9B211701A6801328B
:403F00001A608D4B1B681B07EFD1874A11688B4B0B4013608A4B1B689B0605D5794A117840230B43DBB213700022864B1A60864A834B1A60734A137820218B431370117824
:403F400010230B43DBB213706C4B10221A706C4B1B685B0643D501227C4B1A607C4B1B68DB0610D50F326D4B1A606B4B1A68694B1A60644A117802230B43DBB2137012224F
:403F80005E4B1A7025E0734B1B68684A12689B1A072B03D804226B4B1A6011E0082B06D1614A1368A02109020B43136008E05E4A1368802189010B4313600822614B1A604F
:403FC000504A117820230B43DBB2137011224B4B1A70614A4C4B1A600122604B1A60604B1B681B072AD55B4B1B68504A1068181A0838082802D9002408200EE001240CE054
:404000004A4B1A684A4909688A184A490968C9B211701A6801321A6001380028F0D1002C08D0414A1368802109020B4313600022444B1A600822424B1A6024E0484B1B6885
:404040005B0720D53B4B1B68384A1168414A126891420DD20121414A1160344A1168344800684118DBB20B7013680133136007E0FEF782FC234A117840230B43DBB21370A1
:4040800004222F4B1A60374B1B68DB0620D42BE0204B1A68344B1B689A420CD21D4B1A68324909688A181278D2B231490A601A6801321A600CE0FF222D4B1A60144B1B78CE
:4040C000DBB20A2B04D8124A13780133DBB213700E4B1B680F221340082BD9D10132254B1A6001E0FEF7D2FCFDF774FB10BDC046D40100208C0E0740880E074002030020EB
:404100004C0F07400C030020400F074008020740240300200803002004030020880F074004020740FFFFFEFF60000740100300201C0300204003074008030740FF5FFFFFB7
:40414000C00F0740C80F0740ED0F0000800E07406400074018030020FF0F00006C000740CC0F07408C0F0740140300202003002040020740800F0740044B1A68044B1B7803
:40418000044909685B00D1527047C046340400201C4C00000C00084070B5224B1A78224952018A1850681B785B01CB181A7E013A1E4B1B78DBB29A421CD91C4C2378013380
:4041C000DBB22370174D2B785B01CB1899682378DBB29A00D3185A008A18154B1A60FFF715FB2878C0B22178C9B2FFF709FCFFF74FFB16E000220D4B1A700E4AD1680E4B8A
:404200000B40D3600D4B1B78012B02D1FFF73CF907E0084BDA6880218A43DA601A8901321A8170BDC2020020AC490000C30200203404002028030020FFFFFEFFC1020020EA
:4042400010B50122094B1A60FFF796FF084B1B68084A1343084A1360084B1A8901321A81D968074A0A40DA6010BDC04614000840180100202008E881040008402803002050
:404280007FFFFEFF10B50E4B1B785B010D4A9C580D4B1A78D2B2D1008A1A9300E41801220A4B1A60FFF768FF094B1B68094A1343094A13602000FFF7B5FBFFF76DFF10BD2F
:4042C000C2020020AC490000C302002014000840180100202008E8810400084090B585B000AF78607B689B881A007B68DB895343FA2292005A4314007B689A897B681B69C4
:404300001B881900100000F017FA03009BB21900200000F011FA03001A007B681B7E5A437B685B881900100000F006FA0300FB60FB681800BD4605B090BDC04680B586B0C8
:4043400000AF786001233B617B681800FFF7C6FF0300FB607B681B881A00FB685A43FA239900100000F0E8F903007B617B689B891A007B6953430D49180000F0DDF90300FA
:404380007B6105E07B695B087B613B695B003B617B69002BF6D17B681B693A6992B21A80FB681800BD4606B080BDC04600E1F50590B589B000AF786001237B611F23FB1814
:4043C00010221A707B681B7E1A007B689B8853433B617B689A897B681B691B881900100000F0AAF903009BB2FB607B685B881A0013001B049B1A3969180000F09DF90300B2
:404400001A00FB685343BB61BB692249180000F093F903001A007B68DB8853430A21180000F08AF90300BB617B689B681A4A934211D902237B610EE01F23FB181F22BA18FC
:404440001278013A1A70BB695B08BB611F23FB181B78062B06D97B6964225A43BB699A42EAD300E0C0467B685C69BA6913009B009B181A01D31A6421180000F05DF903008E
:404480009BB223801F23FB181B781800BD4609B090BDC046A0860100A761000080B586B000AFF860B9603B60BB1D1A801223FB18BA1D12881A803B68002B04D11623FB18F4
:4044C00000221A8004E01623FB18BA6812881A80FB681B889B009BB21222BA1812889A4206D91423FB181222BA1812881A8005E0FB681A881423FB1892001A801423FA1804
:404500001623FB1812881B889A4205D91623FB181422BA1812881A80BB681622BA1812881A801623FB181B885B089BB2FF2B06D9BB68FF229A70BB68FF22DA700FE01623A3
:40454000FB181B885B089BB2DAB2BB689A701623FB181B885B089BB2DAB2BB68DA701623FB181B88DB089BB2FF2B03D9BB68FF221A7107E01623FB181B88DB089BB2DAB2FE
:40458000BB681A71C046BD4606B080BD80B582B000AF3A60BB1D021C1A803B1D0A1C1A803B1D1B889B089AB23B681A803B1D1B88DB089AB23B685A803B68BA1D12889A80FD
:4045C0003B68BA1D1288DA803B68BA1D12881A813B680F229A723B680022DA72C046BD4602B080BD80B584B000AF3A60BB1D021C1A803B1D0A1C1A80BB1D1B883A68928824
:404600009B1AFB603B68BA1D12889A803B689B7ADB18DAB23B689A72FB68002B08DA3B689B7A0133DAB23B689A72FB685B42FB603B689B7A0F221340DAB23B689A723B684A
:404640005B881A00FB689A420AD93B685B88012B0CD93B685B88013B9AB23B685A8005E03B685B8801339AB23B685A803B689B7A0F2B09D03B689B7A002B05D03B685B8888
:404680009A00FB689A420BD23B68BA1D1288DA803B68BA1D12881A813B680022DA7247E03B68DB88BA1D12889A4204D23B68BA1D1288DA8009E03B681B89BA1D12889A42DB
:4046C00003D93B68BA1D12881A813B68DB7A092B06D83B68DB7A0133DAB23B68DA7227E03B6819893B68DA880A23FB188A1A1A803B685B880A22BA1812889A420ED23B6832
:404700005A883B1D1B889B089BB29A420CD93B685B88013B9AB23B685A8005E03B685B8801339AB23B685A803B685A883B681A80C046BD4604B080BD002243088B4274D3BB
:4047400003098B425FD3030A8B4244D3030B8B4228D3030C8B420DD3FF22090212BA030C8B4202D31212090265D0030B8B4219D300E0090AC30B8B4201D3CB03C01A52413A
:40478000830B8B4201D38B03C01A5241430B8B4201D34B03C01A5241030B8B4201D30B03C01A5241C30A8B4201D3CB02C01A5241830A8B4201D38B02C01A5241430A8B4211
:4047C00001D34B02C01A5241030A8B4201D30B02C01A5241CDD2C3098B4201D3CB01C01A524183098B4201D38B01C01A524143098B4201D34B01C01A524103098B4201D345
:404800000B01C01A5241C3088B4201D3CB00C01A524183088B4201D38B00C01A524143088B4201D34B00C01A5241411A00D20146524110467047FFE701B5002000F006F8D5
:4048400002BDC0460029F7D076E770477047C046014B18687047C046840100200E4B70B500251E000D4CE41AA410A54204D0AB00F35898470135F8E700F0D2F9084B0025E0
:404880001E00084CE41AA410A54204D0AB00F35898470135F8E770BD2C4C00002C4C00002C4C0000344C0000002310B59A4203D0CC5CC4540133F9E710BD030082189342F0
:4048C00002D019700133FAE77047000000000000EE170000F6170000FE170000061800000E180000161800001E180000261800002E180000361800003E180000461800003C
:404900004E180000561800005E180000661800006E180000761800007E180000861800008E180000961800009E180000A6180000AE18000000300F40000400400F400004C3
:4049400038803E4058045F011801B4016C407008DC036102A102B448B502D802EC08000004300F4001310F4001330F4003420F4006430F40030405060708090A0B0C0E0FD2
:40498000101112131415161718191B1C1D1E1F2021222325262728292A2B2E2F303132333435000020202020202020203C4B00004C030020DC03002030020020B80200204E
:4049C000012800000100010190020020584B00005E030020E603002024020020B4020020012800000100010184020020744B000070030020F003002018020020B00200204D
:404A0000012800000100010178020020904B000082030020FA0300200C020020AC02002001280000010001016C020020AC4B0000940300200404002000020020A80200209B
:404A4000012800000100010160020020C84B0000A60300200E040020F4010020A4020020012800000100010154020020E44B0000B803002018040020E8010020A0020020EC
:404A8000012800000100010148020020004C0000CA03002022040020DC0100209C02002001280000010001013C0200200C00640028280A031E2004000000A00000000C00E1
:404AC000640028280A031E2004000000A00000000C00640028280A031E2004000000A00000000C00640028280A031E2004000000A00000000C00640028280A031E200400A6
:404B00000000A00000000C00640028280A031E2004000000A00000000C00640028280A031E2004000000A00000000C00640028280A031E2004000000A0000000080001407F
:404B4000080204400002044004020440000F0000040000000802060010000140080404400004044004040440F0000000020000000401030008000140080204400002044028
:404B80000402044000F00000080000000C0309001000014008040440000404400404044000F00000080000000C030900080001400802044000020440040204400F00000020
:404BC0000100000000000000000001400800044000000440040004400000F0002000000014050F000000014008000440000004400400044000000F001000000010040C000B
:404C000008000140080204400002044004020440F0000000020000000401030000430000F8B5C046F8BC08BC9E4670479D170000A1210000F8B5C046F8BC08BC9E4670470E
:404C400075170000584C0000C8000020C0000000B8020000000000000000000000010203010000000D0E0F10181706001314000000010203070000000706050405040000D9
:404C800012110000161500000C0B0A0908000000010000000000E02EC05D00001800000000366E01040404000008C0010000FF0F01000100000000000000000000000000A6
:404CC00000000000000000000000000000000000000000001D4C0000000000000000000000000000000000000000000000000000000000000000000000000000000000004B
:404D0000000000000000000000000000000000000000000024010020000000000000000000000000000000000000000000000000000000000000000000000000000000002E
:404D40000000000000000000000000000000000000000000000000000000000000000000000000000000000000000000000000000000000000000000000000000000000033
:404D800000000000000000000000000000000000000000000000000000000000000000000000000000000000000000000000000000000000000000000000000000000000F3
:404DC00000000000000000000000000000000000000000000000000000000000000000000000000000000000000000000000000000000000000000000000000000000000B3
:404E00000000000000000000000000000000000000000000000000000000000000000000000000000000000000000000000000000000000000000000000000000000000072
:407FC00002911500002A0000000038000000000000000000000000000000000000000000000000000000000000000000000000000000000000000000000000000000000077
:0200000490303A
:020000009C7FE3
:0200000490402A
:200000000000000000000000000000000000000000000000000000000000000000000000E0
:0200000490501A
:0C000000000204C81193110104E0AE12CC
:0200000490600A
:0100000001FE
:00000001FF