:400000000010002011000000F5010000F501000010B500F0ADF900F0F5F80000F7B572B680220021D200394801F0E9F980220021D200374801F0E3F90022FF251100354EE3
:400040000C36344BD0584B000700284009184800013001333018AF43F31801900198834207D0581E0078C0190400187802332070F4E704320C2AE4D1C022274B92051A6083
:40008000264A274B80251A6099230621254A1B041360254A2D061560244A254C1360254A182013780B4313708022234B1A60C022224B12041A600322214B1A60214A224BA3
:4000C0001A6080222368D2021343236000F024FD22681E4B1E49134023601E4A1E4B1A6010221E4B1A601E4B20321A601D4B1E4A1D600023236011601C491D4A11601D49CF
:400100001D4A11601D4A1360F7BDC04600300F4000400F401C14000004000140EEEE00000C00014010500F4018500F4030500F4000010B4000700F400001044008010440D5
:4001400000030440A40D000008030440FFFFFBFF0E0000800600008004010B400C0202402002024008010B400000024076010080400002403F0100C0800002400C020B40FE
:4001800010B5064C2378002B07D1054B002B02D0044800E000BF0123237010BD500100200000000018140000084B10B5002B03D00749084800E000BF07480368002B00D126
:4001C00010BD064B002BFBD09847F9E7000000005401002018140000C80000200000000010B500F03DFB1821012000F019FB00F0BBFAFEE710B501F0CDF803680C2B00D1E0
:40020000FEE7FEE7F8B500250F49104B01394A1C14D000221F685C689E68A018B24203D0B858A0500432F8E70200DE68141AA64201D020C2FAE710330139E8E701F0B0F80D
:40024000FFF7CEFFFEE7C0460100000094140000002370B50C480D4C0D4D9A002100032B00D8A95801338150302BF6D1FFF7D6FE084B1A68002A00D11A6080220121D20540
:4002800013680B43136070BD00000020F501000000000000C0000020004770B506000D001400002802D0002000F008FC00207519002C05D0013C2B191B78C018C0B2F7E753
:4002C00070BD0000013810B50B2830D8C901494201F04CF806080A0C0E10141216191B20174B13E0174B16E0174B0AE0174B12E0174B0BE0174B09E0174B02E0174B00E0D1
:40030000174BC91817E0174B05E0174BC9180878C0B214E0154BC9180A7848788C780002230418430300C8781343000606E0002000F0C4FB00210B7848780002184310BD26
:40034000C07F0000C17F0000C57F0000C97F0000D07F0000D17F0000D67F0000D27F0000D47F0000D87F0000DC7F0000E07F00000C4B10B51A68102313400B4A00D113600C
:400380001368802B0DD10024022021001460FFF799FFA04205D021000220FFF793FFFFF77BFF10BD00030B40C0000020F8B5010006000320FFF786FF040031000420FFF742
:4003C00081FF0134E4012718002431000320FFF779FF25000130C001B84209D203785A1ED2B2FD2A00D80125E418E4B20130F3E731000120FFF766FF6442E4B20623844241
:4004000003D16A4255416D422B401800F8BD0000F0B5BD4CA54400F04BFC62B6002401949621FF2302AA490008A800F05DFC0028F6D102AB1988062900D885E01A7E0423F1
:40044000012A4ED102AA568BF21D8A427ED8962149008A427AD808AA92199279172A40D1F3189BB2002B08D09EAAA849D21852181278013B801880B2F3E708AB9B195A7910
:4004800040421B79120280B21A430823824228D15EE0342B00D0C6E0019B012B54D1032E52D18022002153A800F0A9FF80241F2153AB1819F21E02AB3619C918B6B200F099
:4004C00095FF832E00D0FCE002AA02AB907F5B7F000218430400FF2800D8F8E0012301930933002702A8012143763B0AC376002302AA02320176391D1780877689B20029AB
:4005000009D09EA8814D40184019007801391B189BB289B2F3E79EA97D48C9195B4208189BB203707B481B0A081803707A4B0737CB18172108A81970B9B2962300F008FC81
:400540006EE7019B012B46D00423CAE70323C8E702AB1D7F5B7E180031380A282ED96F4A1768002F26D0019A012A25D105AD02AA1371D680002109AE0C222800049600F0B6
:400580003EFFAE60290003A8B8472623AF88FF339F4202D9AB68B34207D0AA68002A01D1002F04D12B68DBB29CE70E2399E70E23170097E7052395E7052392E700F0E0FE91
:4005C000C1FF1700CFFF69FF3900CFFF3E00510069FF62007400002EB6D13000FFF7E6FE4342434102AA1377019F33007AE7019B012BA9D1012EA7D1002DA5D1484B1B6846
:400600001B68DA0BD2B2DB09DBB2002A01D080235B0002AA13771B0A5377FF23937700230427D3775EE7019B012B8DD1022E8BD93DE7019B012B87D10024F1E6019B012B75
:4006400082D12C333719FF339F4200DD7EE753AB1819320009A900F0C9FE0023BCB21F0040E7002E00D06FE705AB19002D4A082711CA11C109AA03CB03C2012334000193E0
:4006800033002FE7019B012B00D05DE7032E00D05AE702AA02AB977F5B7F3F021F430A23FF2F00D91DE741E00020FFF77FFE002802D180221C4B1A6000F012FB00F000FA96
:4006C00042E7012300240193023327000AE7144B1B681A68D3099BB2520601D001339BB22802201880B2984204D20123002401930933EAE753A900F0C1F80028F5D101238D
:40070000040001930300E0E784FDFFFFA7FDFFFFACFDFFFFADFDFFFFAEFDFFFF6C010020CC00002038140000C00000202902C919C90180220020FFF7B0FD0600002D0DD14C
:40074000FF2F0BD129000520FFF7BCFD2900361A0620FFF7B7FDF6B2361AF6B202AB76421E7701270023BDE670B50020FFF71EFE431E98410624134D40422B6804401A68AB
:40078000C021C03A0020FFF788FD6B681B78181AC0B2834203D12B681B68002B02D1002000F08CF9084B19681A00402901D0002C03D000231360FFF72BFE80221A6000F08F
:4007C0007FF970BDCC000020C0000020802200210C4BD2041A601A681A600B4A11601A681A600C22094B1A60094B0B3A1A60094B30321A60084BCD321A60084B7F3A1A60CF
:400800007047C0460001054008010540240105403801054028010540140105400C01054070B50D000400AC4000F014FA024B1C6000F014FA70BDC0460800054010B5012414
:4008400000F008FA054A13682343136000F006FA18212000FFF7E4FF10BDC0460000054010B5054C2378002B03D1FFF7AFFF01232370FFF7E3FF10BD70010020F0B500249F
:40088000ADB0089403900994FF2800D9ABE0A14200D1A8E080220CA800F0A8FD02222300210001940AAD90004059002802D00918034301920132222AF5D1002902D1002B20
:4008C00000D093E0002702977F234D494D4C4E4E4E4A0A916B6025603260C046236806911B0F07920F2B04D022680023120F0A2A01D02368DBB20893089B0493002B00D0BF
:400900007BE000F0A7F9424A424B116805901960049B04920993089B002B16D13E4A03990A920A9A09040A433C490A922560354A3160C0462168090F0F2903D01168090FEF
:400940000A2901D01368DBB20893089D002D39D1002F37D0802229000CA800F050FD019B029A0AAF9B00DA51069B079A0A937F237B602760234B3260C0462268120F0F2A7E
:4009800003D01A68120F0A2A01D01D68EDB20895089B002B16D1224A03990A920A9A09040A4320490A922760164A3160C0462168090F0F2903D01168090F0A2901D0136865
:4009C000DBB20893099B002B09D1124A049912680A600993099B002B01D0099B0893059800F03CF909E00423089306E0019B01279B00EA58E950029266E708982DB0F0BD96
:400A0000B6D7000008000040040000400400008008010B4074010020B6D8000005000080B6D90000060000801F2800D901BE034B8000C318186819607047C046400000206A
:400A4000F8B504000E00032900D901BE1F2C00D901BE032725003D40BD400635AF40AE4000F0F8F8A408054BA400E4182368BB431E43266000F0F2F8F8BDC04600E400E0EA
:400A80001F2318401E3B8340014A13607047C04600E100E01F2318401E3B8340014A13607047C04680E100E01F2318401E3B8340014A13607047C04680E200E001BE7047E9
:400AC000034A044913689BB20B4313607047C0460CED00E00400FA0570B5802504002D02064BAC4205D9586800F0AAF8044BE418F6E79868604300F0A3F870BDD400002057
:400B00000080FFFF10B5034B1B7B584300F098F810BDC046D4000020F0B5050087B000F099F8EB1E049003932D2B5CD8314B1B789D4204D8304B1C78304BE4B21EE0304B28
:400B40001B789D4204D82F4B1C782F4BE4B215E02E4B1B789D4204D82D4B1C782D4BE4B20CE02D4B1B789D4204D82C4B1C782C4BE4B203E02B4B1C782B4BE4B21B78EA1ED5
:400B8000DBB20193294B2A4F9A5C059302922F2A04D92A2D02D919263E6008E03F233E681E40029BB34205D2214B029A1A60052000F046F81C4B1F4AED182B780520DBB20A
:400BC00013601D4B019A1C601C4B1A60FFF79AFF029BB34208D9059B039A05209B5C3B6000F02EF800E001BE049800F037F807B0F0BDC046C0F1FF0FC1F1FF0FC2F1FF0F12
:400C0000C3F1FF0FC4F1FF0FC5F1FF0FC6F1FF0FC7F1FF0FC8F1FF0FC9F1FF0FCAF1FF0FCBF1FF0FCCF1FF0FCDF1FF0F401400002CFF0B4028FF0B401CFF0B4020FF0B401B
:400C40000230800804D0C0460138FDD1C046C046C0467047EFF3108072B6704780F310887047C0460D4B1B685B0615D50C4B1B68DB0609D50B4B1A68002A0DD00A490A609C
:400C800000220A490A6006E0084B074A18681168884201D012681A607047C0464C0F07406400074078010020140200200402002010B5094C4021201D00F07EF820000021E5
:400CC000443000F05BF8054800F0C2F80023236000F09AF810BDC04678010020650C000010B500F09FF810BDF7B506000D0001920120002E24D0002922D00A2410275C4374
:400D0000002C1CD00F4803783B4213D00E4A019913689BB20B800021017011602A1C9D4200D91A1C094992B20431300000F05EFB002005E00120FFF7CFFE013CE0E710208C
:400D4000FEBDC0460C020020100200207801002070B501230C0000280CD000290AD0064D11802B0044330A000100180000F03EFB00232C60180070BD7801002070B50400D5
:400D80000D0000280ED00B20FFF784FE064B074A1C60074B0B201D6000231360054A1360FFF76EFE70BDC0462002002004020020140200200802002070B504000D00002852
:400DC0000CD00B20FFF766FE0022054B0B201C60044B1D60044B1A60FFF752FE70BDC0461C02002018020020100200208021054A10B5136809060B4313600B20FFF740FE62
:400E000010BDC0460000074010B5054C2378002B03D100F041F801232370FFF7E7FF10BDFC01002010B50B20FFF734FE00F0A0F8054A0B2013685B005B0813600022034B0C
:400E40001A60FFF731FE10BD00000740880F0740014B58607047C046FC01002080200A4B40001A6802420AD0084A1268520406D41A680749114019601A6802431A60022231
:400E8000044B1A607047C0460000074060000740FFFEFFFF6C0007400C2110B500241D4A0B2013680B4313601B4B1C4A1C601C4B1C491A601C4B1D4A13601D4A14601D4A1B
:400EC00011601D4A13601D4B1C60FFF7E3FD03210B20FFF7B5FD1A490B20FFF7A5FD4C22184BFF321C60184B1C60184B1A60184B3C3A1C60174BFF3A1C60174B1C60174BEA
:400F00001A70174B1C70174B1C60174B1C60174B1C7010BD700007400000074077080040600007401000FE0007010080000307400403074010030740000207400402074040
:400F400025100000C80E0740880E0740480F0740080F0740C80F0740880F0740250200200C0200200402002010020020240200200023044A1360044A13601022034B1A7088
:400F80007047C046680007406C00074025020020144A10B5136814495B005B08136000230B60124912480B60046812492140016011490B6011490B601149124B1960124953
:400FC000124B19601249134B19601349134B19601021134B19708021136809060B43136010BDC04600000740680007406C00074060000740FF5CFFFF880F0740C80F07403A
:40100000F3070000800F0740ED0F0000C00F0740FF0F0000400F074017030000000F074025020020AF4BF7B51B68002B00D09847AD4B1B68DB0702D50022AC4B1A60202069
:40104000AB4B1A78024219D1AA4A11680222FF32114213D01978A84AC90706D511781E38814311701178073004E0117881431170902110780143117000221A701A7892062A
:4010800000D52EE11A78D20600D428E1022299480168114234D09949994D0A6099490D320C6809682240984C0904C90F26788A189149B24204D204260A7832430A7004E07A
:4010C00027782E68D21BB21A2A602D688F4A156000228F4D2A60802522708E4C6D0222682A43226025688C4A2A40226002240A78A2430A700A78013C22430A7010221A7064
:4011000008220168114235D07C490A60834A1168890417D58249834F0F25834C24682C420CD06E460C683D682C19804D2D68F571F57925700C6801340C60EDE714687C4959
:40114000214011607B4A6C4915681400AA0603D540250A782A430A700025774A1560774A226020240A78A2430A700A78103C22430A701C700268520639D50121704A116023
:40118000704A5D491068102210420BD0604802605E4A10685A4A106002200A7802430A7012221DE0684A5E4812680068121A0420072A0ED95948082A05D1A0240268240287
:4011C0002243026007E080240268A401224302600820594A106020200A7802430A7011221A705A4A454B1A600122594B1A600821584B1A680A4225D0534B494A1B681068A4
:40120000083B1B1A01208B4201D900200B00454C464D002B0AD011682668013B71182E68F6B20E70116801311160F2E7002807D080203A4900020A6802430A603E4A13605D
:4012400008221FE01B685B071ED5384B34491A683D4B08681B6898420CD201203C4BD2B2186030480B680068C3181A700B6801330B6006E0FFF7F2FD40211F4A13780B43DC
:40128000137004222B4B1A60334B1B68DB0628D50F21FF25314B1B481C68194A03680B40082B18D02E4B17681B682E4E9F4208D21368E3181B78DBB23360136801331360CE
:4012C000ECE73560104E33780A2BE7D833780133DBB23370E2E71022234B1A6001E0FFF757FEF7BD000200208C0E0740880E0740250200204C0F07400C020020400F07402A
:4013000008020020080207402402002004020020880F074004020740FFFFFEFF60000740100200201C0200200803074040030740FF5FFFFFC00F0740C80F0740ED0F000021
:40134000800E07406400074018020020FF0F00006C000740CC0F07408C0F0740200200201402002040020740800F074002B4714649084900095C49008E4402BC7047C04615
:4013800003B47146490840004900095E49008E4403BC7047014B18687047C046480100200E4B70B500251E000D4CE41AA410A54204D0AB00F35898470135F8E700F058F84A
:4013C000084B00251E00084CE41AA410A54204D0AB00F35898470135F8E770BD7C1400007C1400007C14000084140000002310B59A4203D0CC5CC4540133F9E710BD03007C
:401400008218934202D019700133FAE77047000080150000510000000000000001330F4003410F4004430F40E61062048E04D84018808C40C608E6089311C804113C01019F
:40144000030405060708090A0B0C0E0F101112131415161718191B1C1D1E1F2021222325262728292A2B2E2F3031323334354300F8B5C046F8BC08BC9E467047A9010000C9
:4014800051020000F8B5C046F8BC08BC9E46704781010000A8140000C800002088000000D800000000000000000000001014000014140000010000000000E02EC05D000015
:4014C0001800000000366E0100000000000000000000000000000000000000000000000000000000000000006E1400000000000000000000000000000000000000000000AD
:4015000000000000000000000000000000000000000000000000000000000000000000000000000000000000E80000200000000000000000000000000000000000000000A3
:40154000000000000000000000000000000000000000000000000000000000000000000000000000000000000000000000000000000000000000000000000000000000006B
:40158000000000000000000000000000000000000000000000000000000000000000000000000000000000000000000000000000000000000000000000000000000000002B
:4015C00000000000000000000000000000000000000000000000000000000000000000000000000000000000000000000000000000000000000000000000000000000000EB
:4016000000000000000000000000000000000000000000000000000000000000000000000000000000000000000000000000000000000000000000000000000000000000AA
:407FC0000000000000000000000000000000000000000000010000000000000000000000000000000000000000000000000000000000000000000000000000000000000080
:0200000490303A
:020000007D7809
:0200000490402A
:200000000000000000000000000000000000000000000000000000000000000000000000E0
:0200000490501A
:0C000000000204C81193110104CE8F0B04
:0200000490600A
:0100000001FE
:00000001FF